{
  "_format": "hh-sol-artifact-1",
  "contractName": "EHR",
  "sourceName": "contracts/EHR.sol",
  "abi": [
    {
      "inputs": [],
      "stateMutability": "nonpayable",
      "type": "constructor"
    },
    {
      "inputs": [
        {
          "internalType": "string",
          "name": "_data",
          "type": "string"
        }
      ],
      "name": "addRecord",
      "outputs": [],
      "stateMutability": "nonpayable",
      "type": "function"
    },
    {
      "inputs": [
        {
          "internalType": "address",
          "name": "_providerAddress",
          "type": "address"
        }
      ],
      "name": "authorizeProvider",
      "outputs": [],
      "stateMutability": "nonpayable",
      "type": "function"
    },
    {
      "inputs": [
        {
          "internalType": "address",
          "name": "_patientAddress",
          "type": "address"
        },
        {
          "internalType": "uint256",
          "name": "_recordIndex",
          "type": "uint256"
        }
      ],
      "name": "getRecord",
      "outputs": [
        {
          "internalType": "string",
          "name": "",
          "type": "string"
        },
        {
          "internalType": "uint256",
          "name": "",
          "type": "uint256"
        }
      ],
      "stateMutability": "view",
      "type": "function"
    },
    {
      "inputs": [
        {
          "internalType": "address",
          "name": "_patientAddress",
          "type": "address"
        },
        {
          "internalType": "address",
          "name": "_providerAddress",
          "type": "address"
        }
      ],
      "name": "isAuthorized",
      "outputs": [
        {
          "internalType": "bool",
          "name": "",
          "type": "bool"
        }
      ],
      "stateMutability": "view",
      "type": "function"
    },
    {
      "inputs": [],
      "name": "owner",
      "outputs": [
        {
          "internalType": "address",
          "name": "",
          "type": "address"
        }
      ],
      "stateMutability": "view",
      "type": "function"
    },
    {
      "inputs": [
        {
          "internalType": "address",
          "name": "",
          "type": "address"
        }
      ],
      "name": "patients",
      "outputs": [
        {
          "internalType": "uint256",
          "name": "recordCount",
          "type": "uint256"
        }
      ],
      "stateMutability": "view",
      "type": "function"
    },
    {
      "inputs": [
        {
          "internalType": "address",
          "name": "_providerAddress",
          "type": "address"
        }
      ],
      "name": "revokeProvider",
      "outputs": [],
      "stateMutability": "nonpayable",
      "type": "function"
    }
  ],
  "bytecode": "0x6080604052348015600f57600080fd5b5033600160006101000a81548173ffffffffffffffffffffffffffffffffffffffff021916908373ffffffffffffffffffffffffffffffffffffffff160217905550610e70806100606000396000f3fe608060405234801561001057600080fd5b506004361061007d5760003560e01c80638da5cb5b1161005b5780638da5cb5b146100fe578063ac1e8b8e1461011c578063cdb8acf014610138578063d81aa8c4146101695761007d565b80630869cfbc14610082578063112ea262146100b257806365e4ad9e146100ce575b600080fd5b61009c600480360381019061009791906106ce565b610185565b6040516100a99190610714565b60405180910390f35b6100cc60048036038101906100c791906106ce565b6101a3565b005b6100e860048036038101906100e3919061072f565b61023d565b6040516100f5919061078a565b60405180910390f35b6101066102d3565b60405161011391906107b4565b60405180910390f35b610136600480360381019061013191906106ce565b6102f9565b005b610152600480360381019061014d91906107fb565b610393565b6040516101609291906108cb565b60405180910390f35b610183600480360381019061017e9190610a30565b6105ab565b005b60006020528060005260406000206000915090508060020154905081565b60016000803373ffffffffffffffffffffffffffffffffffffffff1673ffffffffffffffffffffffffffffffffffffffff16815260200190815260200160002060000160008373ffffffffffffffffffffffffffffffffffffffff1673ffffffffffffffffffffffffffffffffffffffff16815260200190815260200160002060006101000a81548160ff02191690831515021790555050565b60008060008473ffffffffffffffffffffffffffffffffffffffff1673ffffffffffffffffffffffffffffffffffffffff16815260200190815260200160002060000160008373ffffffffffffffffffffffffffffffffffffffff1673ffffffffffffffffffffffffffffffffffffffff16815260200190815260200160002060009054906101000a900460ff16905092915050565b600160009054906101000a900473ffffffffffffffffffffffffffffffffffffffff1681565b60008060003373ffffffffffffffffffffffffffffffffffffffff1673ffffffffffffffffffffffffffffffffffffffff16815260200190815260200160002060000160008373ffffffffffffffffffffffffffffffffffffffff1673ffffffffffffffffffffffffffffffffffffffff16815260200190815260200160002060006101000a81548160ff02191690831515021790555050565b606060008060008573ffffffffffffffffffffffffffffffffffffffff1673ffffffffffffffffffffffffffffffffffffffff16815260200190815260200160002060000160003373ffffffffffffffffffffffffffffffffffffffff1673ffffffffffffffffffffffffffffffffffffffff16815260200190815260200160002060009054906101000a900460ff168061045957503373ffffffffffffffffffffffffffffffffffffffff168473ffffffffffffffffffffffffffffffffffffffff16145b610498576040517f08c379a000000000000000000000000000000000000000000000000000000000815260040161048f90610ac5565b60405180910390fd5b60008060008673ffffffffffffffffffffffffffffffffffffffff1673ffffffffffffffffffffffffffffffffffffffff168152602001908152602001600020600101600085815260200190815260200160002060405180604001604052908160008201805461050790610b14565b80601f016020809104026020016040519081016040528092919081815260200182805461053390610b14565b80156105805780601f1061055557610100808354040283529160200191610580565b820191906000526020600020905b81548152906001019060200180831161056357829003601f168201915b5050505050815260200160018201548152505090508060000151816020015192509250509250929050565b60008060003373ffffffffffffffffffffffffffffffffffffffff1673ffffffffffffffffffffffffffffffffffffffff16815260200190815260200160002090506040518060400160405280838152602001428152508160010160008360020154815260200190815260200160002060008201518160000190816106309190610cf1565b506020820151816001015590505080600201600081548092919061065390610df2565b91905055505050565b6000604051905090565b600080fd5b600080fd5b600073ffffffffffffffffffffffffffffffffffffffff82169050919050565b600061069b82610670565b9050919050565b6106ab81610690565b81146106b657600080fd5b50565b6000813590506106c8816106a2565b92915050565b6000602082840312156106e4576106e3610666565b5b60006106f2848285016106b9565b91505092915050565b6000819050919050565b61070e816106fb565b82525050565b60006020820190506107296000830184610705565b92915050565b6000806040838503121561074657610745610666565b5b6000610754858286016106b9565b9250506020610765858286016106b9565b9150509250929050565b60008115159050919050565b6107848161076f565b82525050565b600060208201905061079f600083018461077b565b92915050565b6107ae81610690565b82525050565b60006020820190506107c960008301846107a5565b92915050565b6107d8816106fb565b81146107e357600080fd5b50565b6000813590506107f5816107cf565b92915050565b6000806040838503121561081257610811610666565b5b6000610820858286016106b9565b9250506020610831858286016107e6565b9150509250929050565b600081519050919050565b600082825260208201905092915050565b60005b8381101561087557808201518184015260208101905061085a565b60008484015250505050565b6000601f19601f8301169050919050565b600061089d8261083b565b6108a78185610846565b93506108b7818560208601610857565b6108c081610881565b840191505092915050565b600060408201905081810360008301526108e58185610892565b90506108f46020830184610705565b9392505050565b600080fd5b600080fd5b7f4e487b7100000000000000000000000000000000000000000000000000000000600052604160045260246000fd5b61093d82610881565b810181811067ffffffffffffffff8211171561095c5761095b610905565b5b80604052505050565b600061096f61065c565b905061097b8282610934565b919050565b600067ffffffffffffffff82111561099b5761099a610905565b5b6109a482610881565b9050602081019050919050565b82818337600083830152505050565b60006109d36109ce84610980565b610965565b9050828152602081018484840111156109ef576109ee610900565b5b6109fa8482856109b1565b509392505050565b600082601f830112610a1757610a166108fb565b5b8135610a278482602086016109c0565b91505092915050565b600060208284031215610a4657610a45610666565b5b600082013567ffffffffffffffff811115610a6457610a6361066b565b5b610a7084828501610a02565b91505092915050565b7f4e6f7420617574686f72697a6564000000000000000000000000000000000000600082015250565b6000610aaf600e83610846565b9150610aba82610a79565b602082019050919050565b60006020820190508181036000830152610ade81610aa2565b9050919050565b7f4e487b7100000000000000000000000000000000000000000000000000000000600052602260045260246000fd5b60006002820490506001821680610b2c57607f821691505b602082108103610b3f57610b3e610ae5565b5b50919050565b60008190508160005260206000209050919050565b60006020601f8301049050919050565b600082821b905092915050565b600060088302610ba77fffffffffffffffffffffffffffffffffffffffffffffffffffffffffffffffff82610b6a565b610bb18683610b6a565b95508019841693508086168417925050509392505050565b6000819050919050565b6000610bee610be9610be4846106fb565b610bc9565b6106fb565b9050919050565b6000819050919050565b610c0883610bd3565b610c1c610c1482610bf5565b848454610b77565b825550505050565b600090565b610c31610c24565b610c3c818484610bff565b505050565b5b81811015610c6057610c55600082610c29565b600181019050610c42565b5050565b601f821115610ca557610c7681610b45565b610c7f84610b5a565b81016020851015610c8e578190505b610ca2610c9a85610b5a565b830182610c41565b50505b505050565b600082821c905092915050565b6000610cc860001984600802610caa565b1980831691505092915050565b6000610ce18383610cb7565b9150826002028217905092915050565b610cfa8261083b565b67ffffffffffffffff811115610d1357610d12610905565b5b610d1d8254610b14565b610d28828285610c64565b600060209050601f831160018114610d5b5760008415610d49578287015190505b610d538582610cd5565b865550610dbb565b601f198416610d6986610b45565b60005b82811015610d9157848901518255600182019150602085019450602081019050610d6c565b86831015610dae5784890151610daa601f891682610cb7565b8355505b6001600288020188555050505b505050505050565b7f4e487b7100000000000000000000000000000000000000000000000000000000600052601160045260246000fd5b6000610dfd826106fb565b91507fffffffffffffffffffffffffffffffffffffffffffffffffffffffffffffffff8203610e2f57610e2e610dc3565b5b60018201905091905056fea2646970667358221220642343115cdb7bcda1eb0914f9d72cbae1f91a5092d0e0bd3e92418452a6549b64736f6c634300081c0033",
  "linkReferences": {},
  "deployedLinkReferences": {}
}